{
  "_format": "hh-sol-artifact-1",
  "contractName": "Campaign",
  "sourceName": "contracts/Guestbook.sol",
  "abi": [
    {
      "inputs": [
        {
          "internalType": "address",
          "name": "_owner",
          "type": "address"
        },
        {
          "internalType": "string",
          "name": "_title",
          "type": "string"
        },
        {
          "internalType": "string",
          "name": "_description",
          "type": "string"
        },
        {
          "internalType": "uint256",
          "name": "_goal",
          "type": "uint256"
        }
      ],
      "stateMutability": "nonpayable",
      "type": "constructor"
    },
    {
      "anonymous": false,
      "inputs": [],
      "name": "CampaignCompleted",
      "type": "event"
    },
    {
      "anonymous": false,
      "inputs": [
        {
          "indexed": false,
          "internalType": "address",
          "name": "contributor",
          "type": "address"
        },
        {
          "indexed": false,
          "internalType": "uint256",
          "name": "amount",
          "type": "uint256"
        }
      ],
      "name": "ContributionReceived",
      "type": "event"
    },
    {
      "anonymous": false,
      "inputs": [
        {
          "indexed": false,
          "internalType": "uint256",
          "name": "amount",
          "type": "uint256"
        }
      ],
      "name": "FundsWithdrawn",
      "type": "event"
    },
    {
      "anonymous": false,
      "inputs": [
        {
          "indexed": false,
          "internalType": "uint256",
          "name": "milestoneIndex",
          "type": "uint256"
        }
      ],
      "name": "MilestoneApproved",
      "type": "event"
    },
    {
      "anonymous": false,
      "inputs": [
        {
          "indexed": false,
          "internalType": "string",
          "name": "description",
          "type": "string"
        },
        {
          "indexed": false,
          "internalType": "uint256",
          "name": "amount",
          "type": "uint256"
        }
      ],
      "name": "MilestoneCreated",
      "type": "event"
    },
    {
      "anonymous": false,
      "inputs": [
        {
          "indexed": false,
          "internalType": "address",
          "name": "contributor",
          "type": "address"
        },
        {
          "indexed": false,
          "internalType": "uint256",
          "name": "amount",
          "type": "uint256"
        }
      ],
      "name": "RefundIssued",
      "type": "event"
    },
    {
      "anonymous": false,
      "inputs": [
        {
          "indexed": false,
          "internalType": "uint256",
          "name": "milestoneIndex",
          "type": "uint256"
        },
        {
          "indexed": false,
          "internalType": "string",
          "name": "log",
          "type": "string"
        }
      ],
      "name": "StudyLogSubmitted",
      "type": "event"
    },
    {
      "inputs": [
        {
          "internalType": "uint256",
          "name": "_index",
          "type": "uint256"
        }
      ],
      "name": "approveMilestone",
      "outputs": [],
      "stateMutability": "nonpayable",
      "type": "function"
    },
    {
      "inputs": [],
      "name": "contribute",
      "outputs": [],
      "stateMutability": "payable",
      "type": "function"
    },
    {
      "inputs": [
        {
          "internalType": "address",
          "name": "",
          "type": "address"
        }
      ],
      "name": "contributions",
      "outputs": [
        {
          "internalType": "uint256",
          "name": "",
          "type": "uint256"
        }
      ],
      "stateMutability": "view",
      "type": "function"
    },
    {
      "inputs": [
        {
          "internalType": "uint256",
          "name": "",
          "type": "uint256"
        }
      ],
      "name": "contributors",
      "outputs": [
        {
          "internalType": "address",
          "name": "",
          "type": "address"
        }
      ],
      "stateMutability": "view",
      "type": "function"
    },
    {
      "inputs": [
        {
          "internalType": "string",
          "name": "_description",
          "type": "string"
        },
        {
          "internalType": "uint256",
          "name": "_amount",
          "type": "uint256"
        }
      ],
      "name": "createMilestone",
      "outputs": [],
      "stateMutability": "nonpayable",
      "type": "function"
    },
    {
      "inputs": [],
      "name": "currentMilestone",
      "outputs": [
        {
          "internalType": "uint256",
          "name": "",
          "type": "uint256"
        }
      ],
      "stateMutability": "view",
      "type": "function"
    },
    {
      "inputs": [],
      "name": "deadline",
      "outputs": [
        {
          "internalType": "uint256",
          "name": "",
          "type": "uint256"
        }
      ],
      "stateMutability": "view",
      "type": "function"
    },
    {
      "inputs": [],
      "name": "description",
      "outputs": [
        {
          "internalType": "string",
          "name": "",
          "type": "string"
        }
      ],
      "stateMutability": "view",
      "type": "function"
    },
    {
      "inputs": [],
      "name": "getContributors",
      "outputs": [
        {
          "internalType": "address[]",
          "name": "",
          "type": "address[]"
        }
      ],
      "stateMutability": "view",
      "type": "function"
    },
    {
      "inputs": [
        {
          "internalType": "uint256",
          "name": "_milestoneIndex",
          "type": "uint256"
        }
      ],
      "name": "getMilestoneLogs",
      "outputs": [
        {
          "internalType": "string[]",
          "name": "",
          "type": "string[]"
        }
      ],
      "stateMutability": "view",
      "type": "function"
    },
    {
      "inputs": [],
      "name": "getMilestonesCount",
      "outputs": [
        {
          "internalType": "uint256",
          "name": "",
          "type": "uint256"
        }
      ],
      "stateMutability": "view",
      "type": "function"
    },
    {
      "inputs": [],
      "name": "goal",
      "outputs": [
        {
          "internalType": "uint256",
          "name": "",
          "type": "uint256"
        }
      ],
      "stateMutability": "view",
      "type": "function"
    },
    {
      "inputs": [],
      "name": "isCompleted",
      "outputs": [
        {
          "internalType": "bool",
          "name": "",
          "type": "bool"
        }
      ],
      "stateMutability": "view",
      "type": "function"
    },
    {
      "inputs": [],
      "name": "issueRefunds",
      "outputs": [],
      "stateMutability": "nonpayable",
      "type": "function"
    },
    {
      "inputs": [],
      "name": "markCampaignCompleted",
      "outputs": [],
      "stateMutability": "nonpayable",
      "type": "function"
    },
    {
      "inputs": [
        {
          "internalType": "uint256",
          "name": "",
          "type": "uint256"
        }
      ],
      "name": "milestones",
      "outputs": [
        {
          "internalType": "string",
          "name": "description",
          "type": "string"
        },
        {
          "internalType": "uint256",
          "name": "amount",
          "type": "uint256"
        },
        {
          "internalType": "bool",
          "name": "isApproved",
          "type": "bool"
        },
        {
          "internalType": "uint256",
          "name": "voteCount",
          "type": "uint256"
        }
      ],
      "stateMutability": "view",
      "type": "function"
    },
    {
      "inputs": [],
      "name": "owner",
      "outputs": [
        {
          "internalType": "address",
          "name": "",
          "type": "address"
        }
      ],
      "stateMutability": "view",
      "type": "function"
    },
    {
      "inputs": [],
      "name": "raisedAmount",
      "outputs": [
        {
          "internalType": "uint256",
          "name": "",
          "type": "uint256"
        }
      ],
      "stateMutability": "view",
      "type": "function"
    },
    {
      "inputs": [
        {
          "internalType": "uint256",
          "name": "_milestoneIndex",
          "type": "uint256"
        },
        {
          "internalType": "string",
          "name": "_log",
          "type": "string"
        }
      ],
      "name": "submitStudyLog",
      "outputs": [],
      "stateMutability": "nonpayable",
      "type": "function"
    },
    {
      "inputs": [],
      "name": "title",
      "outputs": [
        {
          "internalType": "string",
          "name": "",
          "type": "string"
        }
      ],
      "stateMutability": "view",
      "type": "function"
    },
    {
      "inputs": [
        {
          "internalType": "uint256",
          "name": "_index",
          "type": "uint256"
        }
      ],
      "name": "withdrawFunds",
      "outputs": [],
      "stateMutability": "nonpayable",
      "type": "function"
    }
  ],
  "bytecode": "0x60806040523480156200001157600080fd5b506040516200199138038062001991833981016040819052620000349162000154565b600080546001600160a01b0319166001600160a01b03861617905560016200005d848262000275565b5060026200006c838262000275565b506003819055620000814262278d0062000341565b600555506200036992505050565b634e487b7160e01b600052604160045260246000fd5b600082601f830112620000b757600080fd5b81516001600160401b0380821115620000d457620000d46200008f565b604051601f8301601f19908116603f01168101908282118183101715620000ff57620000ff6200008f565b816040528381526020925086838588010111156200011c57600080fd5b600091505b8382101562000140578582018301518183018401529082019062000121565b600093810190920192909252949350505050565b600080600080608085870312156200016b57600080fd5b84516001600160a01b03811681146200018357600080fd5b60208601519094506001600160401b0380821115620001a157600080fd5b620001af88838901620000a5565b94506040870151915080821115620001c657600080fd5b50620001d587828801620000a5565b606096909601519497939650505050565b600181811c90821680620001fb57607f821691505b6020821081036200021c57634e487b7160e01b600052602260045260246000fd5b50919050565b601f8211156200027057600081815260208120601f850160051c810160208610156200024b5750805b601f850160051c820191505b818110156200026c5782815560010162000257565b5050505b505050565b81516001600160401b038111156200029157620002916200008f565b620002a981620002a28454620001e6565b8462000222565b602080601f831160018114620002e15760008415620002c85750858301515b600019600386901b1c1916600185901b1785556200026c565b600085815260208120601f198616915b828110156200031257888601518255948401946001909101908401620002f1565b5085821015620003315787850151600019600388901b60f8161c191681555b5050505050600190811b01905550565b808201808211156200036357634e487b7160e01b600052601160045260246000fd5b92915050565b61161880620003796000396000f3fe60806040526004361061012a5760003560e01c80637284e416116100ab578063b473f1991161006f578063b473f1991461030c578063c438b40f1461032c578063c59ee1dc1461034c578063d7bb99ba14610362578063e89e4ed61461036a578063fa391c641461039a57600080fd5b80637284e4161461027f5780638da5cb5b14610294578063900e7dff146102b4578063af157c19146102d4578063b0304813146102f657600080fd5b806342e94c90116100f257806342e94c90146101d95780634378e337146102065780634a79d50c1461021b5780634ae0b8311461023d5780635ee38fa81461025257600080fd5b80630b49351c1461012f578063155dd5ee1461015357806329dcb0cf146101755780633cb5d1001461018b57806340193883146101c3575b600080fd5b34801561013b57600080fd5b506009545b6040519081526020015b60405180910390f35b34801561015f57600080fd5b5061017361016e366004611077565b6103c4565b005b34801561018157600080fd5b5061014060055481565b34801561019757600080fd5b506101ab6101a6366004611077565b61057b565b6040516001600160a01b03909116815260200161014a565b3480156101cf57600080fd5b5061014060035481565b3480156101e557600080fd5b506101406101f4366004611090565b60076020526000908152604090205481565b34801561021257600080fd5b506101736105a5565b34801561022757600080fd5b50610230610675565b60405161014a9190611106565b34801561024957600080fd5b50610173610703565b34801561025e57600080fd5b5061027261026d366004611077565b6108b6565b60405161014a9190611119565b34801561028b57600080fd5b506102306109d5565b3480156102a057600080fd5b506000546101ab906001600160a01b031681565b3480156102c057600080fd5b506101736102cf36600461121e565b6109e2565b3480156102e057600080fd5b506102e9610acf565b60405161014a9190611265565b34801561030257600080fd5b50610140600a5481565b34801561031857600080fd5b506101736103273660046112b2565b610b31565b34801561033857600080fd5b50610173610347366004611077565b610c6c565b34801561035857600080fd5b5061014060045481565b610173610e14565b34801561037657600080fd5b5061038a610385366004611077565b610fa9565b60405161014a94939291906112f7565b3480156103a657600080fd5b506006546103b49060ff1681565b604051901515815260200161014a565b6000546001600160a01b031633146103f75760405162461bcd60e51b81526004016103ee90611326565b60405180910390fd5b60065460ff161561041a5760405162461bcd60e51b81526004016103ee90611368565b600954811061043b5760405162461bcd60e51b81526004016103ee9061139f565b600060098281548110610450576104506113d6565b60009182526020909120600690910201600281015490915060ff166104b05760405162461bcd60e51b8152602060048201526016602482015275135a5b195cdd1bdb99481b9bdd08185c1c1c9bdd995960521b60448201526064016103ee565b60008160010154116104fb5760405162461bcd60e51b81526020600482015260146024820152734e6f2066756e647320746f20776974686472617760601b60448201526064016103ee565b600181018054600091829055815460405191926001600160a01b039091169183156108fc0291849190818181858888f19350505050158015610541573d6000803e3d6000fd5b506040518181527f4a37b25aab49761ecf63117fe82b98d750917451133cf797507bc9fb5b96044a906020015b60405180910390a1505050565b6008818154811061058b57600080fd5b6000918252602090912001546001600160a01b0316905081565b6000546001600160a01b031633146105cf5760405162461bcd60e51b81526004016103ee90611326565b60065460ff16156105f25760405162461bcd60e51b81526004016103ee90611368565b600354600454101561063d5760405162461bcd60e51b815260206004820152601460248201527311dbd85b081b9bdd081e595d081c995858da195960621b60448201526064016103ee565b6006805460ff191660011790556040517f47768825bbd1c23d8787fdaa8500ebadc117722c311c5ea7d658a5bb66135bd790600090a1565b60018054610682906113ec565b80601f01602080910402602001604051908101604052809291908181526020018280546106ae906113ec565b80156106fb5780601f106106d0576101008083540402835291602001916106fb565b820191906000526020600020905b8154815290600101906020018083116106de57829003601f168201915b505050505081565b60065460ff16156107265760405162461bcd60e51b81526004016103ee90611368565b600554421161076f5760405162461bcd60e51b815260206004820152601560248201527443616d706169676e207374696c6c2061637469766560581b60448201526064016103ee565b600354600454106107b95760405162461bcd60e51b8152602060048201526014602482015273119d5b991a5b99c819dbd85b081dd85cc81b595d60621b60448201526064016103ee565b60005b6008548110156108a6576000600882815481106107db576107db6113d6565b60009182526020808320909101546001600160a01b031680835260079091526040909120549091508015610891576001600160a01b0382166000818152600760205260408082208290555183156108fc0291849190818181858888f1935050505015801561084d573d6000803e3d6000fd5b50604080516001600160a01b0384168152602081018390527fa171b6942063c6f2800ce40a780edce37baa2b618571b11eedd1e69e626e7d76910160405180910390a15b5050808061089e9061143c565b9150506107bc565b506006805460ff19166001179055565b60095460609082106108da5760405162461bcd60e51b81526004016103ee9061139f565b600982815481106108ed576108ed6113d6565b9060005260206000209060060201600501805480602002602001604051908101604052809291908181526020016000905b828210156109ca57838290600052602060002001805461093d906113ec565b80601f0160208091040260200160405190810160405280929190818152602001828054610969906113ec565b80156109b65780601f1061098b576101008083540402835291602001916109b6565b820191906000526020600020905b81548152906001019060200180831161099957829003601f168201915b50505050508152602001906001019061091e565b505050509050919050565b60028054610682906113ec565b6000546001600160a01b03163314610a0c5760405162461bcd60e51b81526004016103ee90611326565b60065460ff1615610a2f5760405162461bcd60e51b81526004016103ee90611368565b6009548210610a505760405162461bcd60e51b81526004016103ee9061139f565b60098281548110610a6357610a636113d6565b600091825260208083206005600690930201919091018054600181018255908352912001610a9182826114a4565b507fc5ccf4b82a975415aae5bc5106d07e66bc2e2ef8d07555e08c2e308a4c0bcdb78282604051610ac3929190611564565b60405180910390a15050565b60606008805480602002602001604051908101604052809291908181526020018280548015610b2757602002820191906000526020600020905b81546001600160a01b03168152600190910190602001808311610b09575b5050505050905090565b6000546001600160a01b03163314610b5b5760405162461bcd60e51b81526004016103ee90611326565b60065460ff1615610b7e5760405162461bcd60e51b81526004016103ee90611368565b47811115610bdf5760405162461bcd60e51b815260206004820152602860248201527f4d696c6573746f6e6520616d6f756e74206578636565647320617661696c61626044820152676c652066756e647360c01b60648201526084016103ee565b600980546001810182556000919091526006027f6e1540171b6c0c960b71a7020d9f60077f6af931a8bbf590da0223dacf75c7af0180610c1f84826114a4565b506001810182905560028101805460ff19169055600060038201556040517f0cc684c5a5b3eb7573b102e134b9c71823a07d7f3503f183e219c7413ce197909061056e9085908590611585565b60065460ff1615610c8f5760405162461bcd60e51b81526004016103ee90611368565b33600090815260076020526040902054610ceb5760405162461bcd60e51b815260206004820152601a60248201527f4f6e6c7920636f6e7472696275746f72732063616e20766f746500000000000060448201526064016103ee565b6009548110610d0c5760405162461bcd60e51b81526004016103ee9061139f565b600060098281548110610d2157610d216113d6565b600091825260208083203384526004600690930201918201905260409091205490915060ff1615610d845760405162461bcd60e51b815260206004820152600d60248201526c105b1c9958591e481d9bdd1959609a1b60448201526064016103ee565b3360009081526004820160205260408120805460ff1916600117905560038201805491610db08361143c565b9091555050600854610dc4906002906115a7565b81600301541115610e105760028101805460ff191660011790556040517f0adffe31a62a9e7e5068bdd6f839470d57dd0e18fac8a8d525196283eb9b392a90610ac39084815260200190565b5050565b60065460ff1615610e375760405162461bcd60e51b81526004016103ee90611368565b6005544210610e7d5760405162461bcd60e51b815260206004820152601260248201527110d85b5c185a59db881a185cc8195b99195960721b60448201526064016103ee565b60003411610ed95760405162461bcd60e51b815260206004820152602360248201527f436f6e747269627574696f6e206d75737420626520677265617465722074686160448201526206e20360ec1b60648201526084016103ee565b336000908152600760205260408120549003610f3257600880546001810182556000919091527ff3f7a9fe364faab93b216da50a3214154f22a0a2b415b23a84c8169e8b636ee30180546001600160a01b031916331790555b3360009081526007602052604081208054349290610f519084906115c9565b925050819055503460046000828254610f6a91906115c9565b9091555050604080513381523460208201527f1bb460ccaaf70fbacfec17a376f8acbd278c1405590ffcc8ebe4b88daf4f64ad910160405180910390a1565b60098181548110610fb957600080fd5b9060005260206000209060060201600091509050806000018054610fdc906113ec565b80601f0160208091040260200160405190810160405280929190818152602001828054611008906113ec565b80156110555780601f1061102a57610100808354040283529160200191611055565b820191906000526020600020905b81548152906001019060200180831161103857829003601f168201915b50505050600183015460028401546003909401549293909260ff909116915084565b60006020828403121561108957600080fd5b5035919050565b6000602082840312156110a257600080fd5b81356001600160a01b03811681146110b957600080fd5b9392505050565b6000815180845260005b818110156110e6576020818501810151868301820152016110ca565b506000602082860101526020601f19601f83011685010191505092915050565b6020815260006110b960208301846110c0565b6000602080830181845280855180835260408601915060408160051b870101925083870160005b8281101561116e57603f1988860301845261115c8583516110c0565b94509285019290850190600101611140565b5092979650505050505050565b634e487b7160e01b600052604160045260246000fd5b600082601f8301126111a257600080fd5b813567ffffffffffffffff808211156111bd576111bd61117b565b604051601f8301601f19908116603f011681019082821181831017156111e5576111e561117b565b816040528381528660208588010111156111fe57600080fd5b836020870160208301376000602085830101528094505050505092915050565b6000806040838503121561123157600080fd5b82359150602083013567ffffffffffffffff81111561124f57600080fd5b61125b85828601611191565b9150509250929050565b6020808252825182820181905260009190848201906040850190845b818110156112a65783516001600160a01b031683529284019291840191600101611281565b50909695505050505050565b600080604083850312156112c557600080fd5b823567ffffffffffffffff8111156112dc57600080fd5b6112e885828601611191565b95602094909401359450505050565b60808152600061130a60808301876110c0565b6020830195909552509115156040830152606090910152919050565b60208082526022908201527f4f6e6c79206f776e65722063616e20706572666f726d2074686973206163746960408201526137b760f11b606082015260800190565b6020808252601a908201527f43616d706169676e20616c726561647920636f6d706c65746564000000000000604082015260600190565b60208082526017908201527f496e76616c6964206d696c6573746f6e6520696e646578000000000000000000604082015260600190565b634e487b7160e01b600052603260045260246000fd5b600181811c9082168061140057607f821691505b60208210810361142057634e487b7160e01b600052602260045260246000fd5b50919050565b634e487b7160e01b600052601160045260246000fd5b60006001820161144e5761144e611426565b5060010190565b601f82111561149f57600081815260208120601f850160051c8101602086101561147c5750805b601f850160051c820191505b8181101561149b57828155600101611488565b5050505b505050565b815167ffffffffffffffff8111156114be576114be61117b565b6114d2816114cc84546113ec565b84611455565b602080601f83116001811461150757600084156114ef5750858301515b600019600386901b1c1916600185901b17855561149b565b600085815260208120601f198616915b8281101561153657888601518255948401946001909101908401611517565b50858210156115545787850151600019600388901b60f8161c191681555b5050505050600190811b01905550565b82815260406020820152600061157d60408301846110c0565b949350505050565b60408152600061159860408301856110c0565b90508260208301529392505050565b6000826115c457634e487b7160e01b600052601260045260246000fd5b500490565b808201808211156115dc576115dc611426565b9291505056fea2646970667358221220c5bfc79b49578398bcef9d6916a2b01d88bfea677a9114fa4503edb0c4c6356164736f6c63430008150033",
  "linkReferences": {},
  "deployedLinkReferences": {}
}